{
  "address": "0x5FbDB2315678afecb367f032d93F642f64180aa3",
  "abi": [
    {
      "inputs": [
        {
          "internalType": "address",
          "name": "feeRecipient",
          "type": "address"
        },
        {
          "internalType": "uint32",
          "name": "platformFeePermillePlain",
          "type": "uint32"
        }
      ],
      "stateMutability": "nonpayable",
      "type": "constructor"
    },
    {
      "anonymous": false,
      "inputs": [
        {
          "indexed": true,
          "internalType": "uint256",
          "name": "tokenId",
          "type": "uint256"
        },
        {
          "indexed": true,
          "internalType": "address",
          "name": "buyer",
          "type": "address"
        }
      ],
      "name": "AccessPurchased",
      "type": "event"
    },
    {
      "anonymous": false,
      "inputs": [
        {
          "indexed": true,
          "internalType": "uint256",
          "name": "tokenId",
          "type": "uint256"
        },
        {
          "indexed": false,
          "internalType": "uint256",
          "name": "priceWei",
          "type": "uint256"
        }
      ],
      "name": "ComicListed",
      "type": "event"
    },
    {
      "anonymous": false,
      "inputs": [
        {
          "indexed": true,
          "internalType": "address",
          "name": "author",
          "type": "address"
        },
        {
          "indexed": true,
          "internalType": "uint256",
          "name": "tokenId",
          "type": "uint256"
        },
        {
          "indexed": false,
          "internalType": "string",
          "name": "metadataURI",
          "type": "string"
        },
        {
          "indexed": false,
          "internalType": "uint32",
          "name": "supply",
          "type": "uint32"
        }
      ],
      "name": "ComicMinted",
      "type": "event"
    },
    {
      "anonymous": false,
      "inputs": [
        {
          "indexed": true,
          "internalType": "uint256",
          "name": "tokenId",
          "type": "uint256"
        },
        {
          "indexed": true,
          "internalType": "address",
          "name": "buyer",
          "type": "address"
        },
        {
          "indexed": false,
          "internalType": "uint256",
          "name": "priceWei",
          "type": "uint256"
        }
      ],
      "name": "ComicSold",
      "type": "event"
    },
    {
      "anonymous": false,
      "inputs": [
        {
          "indexed": true,
          "internalType": "uint256",
          "name": "tokenId",
          "type": "uint256"
        },
        {
          "indexed": true,
          "internalType": "address",
          "name": "from",
          "type": "address"
        },
        {
          "indexed": false,
          "internalType": "uint256",
          "name": "amount",
          "type": "uint256"
        }
      ],
      "name": "TipReceived",
      "type": "event"
    },
    {
      "inputs": [
        {
          "internalType": "address",
          "name": "a",
          "type": "address"
        }
      ],
      "name": "balanceOf",
      "outputs": [
        {
          "internalType": "uint256",
          "name": "",
          "type": "uint256"
        }
      ],
      "stateMutability": "view",
      "type": "function"
    },
    {
      "inputs": [
        {
          "internalType": "uint256",
          "name": "tokenId",
          "type": "uint256"
        }
      ],
      "name": "buyNow",
      "outputs": [],
      "stateMutability": "payable",
      "type": "function"
    },
    {
      "inputs": [
        {
          "internalType": "uint256",
          "name": "tokenId",
          "type": "uint256"
        }
      ],
      "name": "getComicInfo",
      "outputs": [
        {
          "internalType": "string",
          "name": "metadataURI",
          "type": "string"
        },
        {
          "internalType": "address",
          "name": "owner",
          "type": "address"
        },
        {
          "internalType": "address",
          "name": "author",
          "type": "address"
        },
        {
          "internalType": "bool",
          "name": "listed",
          "type": "bool"
        },
        {
          "internalType": "uint32",
          "name": "supply",
          "type": "uint32"
        },
        {
          "internalType": "uint32",
          "name": "soldCount",
          "type": "uint32"
        }
      ],
      "stateMutability": "view",
      "type": "function"
    },
    {
      "inputs": [
        {
          "internalType": "uint256",
          "name": "tokenId",
          "type": "uint256"
        },
        {
          "internalType": "address",
          "name": "buyer",
          "type": "address"
        }
      ],
      "name": "hasAccess",
      "outputs": [
        {
          "internalType": "bool",
          "name": "",
          "type": "bool"
        }
      ],
      "stateMutability": "view",
      "type": "function"
    },
    {
      "inputs": [
        {
          "internalType": "uint256",
          "name": "tokenId",
          "type": "uint256"
        },
        {
          "internalType": "externalEuint64",
          "name": "priceWeiExt",
          "type": "bytes32"
        },
        {
          "internalType": "bytes",
          "name": "inputProof",
          "type": "bytes"
        },
        {
          "internalType": "uint64",
          "name": "priceWeiPlain",
          "type": "uint64"
        }
      ],
      "name": "listForSale",
      "outputs": [],
      "stateMutability": "nonpayable",
      "type": "function"
    },
    {
      "inputs": [
        {
          "internalType": "string",
          "name": "metadataURI",
          "type": "string"
        },
        {
          "internalType": "externalEuint64",
          "name": "priceWeiExt",
          "type": "bytes32"
        },
        {
          "internalType": "bytes",
          "name": "inputProof",
          "type": "bytes"
        },
        {
          "internalType": "externalEuint32",
          "name": "royaltyPermilleExt",
          "type": "bytes32"
        },
        {
          "internalType": "bytes",
          "name": "royaltyProof",
          "type": "bytes"
        },
        {
          "internalType": "uint32",
          "name": "supply",
          "type": "uint32"
        },
        {
          "internalType": "uint64",
          "name": "priceWeiPlain",
          "type": "uint64"
        },
        {
          "internalType": "uint32",
          "name": "royaltyPermillePlain",
          "type": "uint32"
        }
      ],
      "name": "mintComic",
      "outputs": [
        {
          "internalType": "uint256",
          "name": "tokenId",
          "type": "uint256"
        }
      ],
      "stateMutability": "nonpayable",
      "type": "function"
    },
    {
      "inputs": [],
      "name": "nextTokenId",
      "outputs": [
        {
          "internalType": "uint256",
          "name": "",
          "type": "uint256"
        }
      ],
      "stateMutability": "view",
      "type": "function"
    },
    {
      "inputs": [
        {
          "internalType": "uint256",
          "name": "tokenId",
          "type": "uint256"
        }
      ],
      "name": "ownerOf",
      "outputs": [
        {
          "internalType": "address",
          "name": "",
          "type": "address"
        }
      ],
      "stateMutability": "view",
      "type": "function"
    },
    {
      "inputs": [],
      "name": "platformFeePermille",
      "outputs": [
        {
          "internalType": "uint32",
          "name": "",
          "type": "uint32"
        }
      ],
      "stateMutability": "view",
      "type": "function"
    },
    {
      "inputs": [],
      "name": "platformFeeRecipient",
      "outputs": [
        {
          "internalType": "address",
          "name": "",
          "type": "address"
        }
      ],
      "stateMutability": "view",
      "type": "function"
    },
    {
      "inputs": [],
      "name": "protocolId",
      "outputs": [
        {
          "internalType": "uint256",
          "name": "",
          "type": "uint256"
        }
      ],
      "stateMutability": "pure",
      "type": "function"
    },
    {
      "inputs": [
        {
          "internalType": "uint256",
          "name": "tokenId",
          "type": "uint256"
        },
        {
          "internalType": "externalEuint32",
          "name": "oneExt",
          "type": "bytes32"
        },
        {
          "internalType": "bytes",
          "name": "proof",
          "type": "bytes"
        }
      ],
      "name": "purchaseAccess",
      "outputs": [],
      "stateMutability": "payable",
      "type": "function"
    },
    {
      "inputs": [
        {
          "internalType": "uint256",
          "name": "tokenId",
          "type": "uint256"
        },
        {
          "internalType": "uint256",
          "name": "salePrice",
          "type": "uint256"
        }
      ],
      "name": "royaltyInfo",
      "outputs": [
        {
          "internalType": "address",
          "name": "",
          "type": "address"
        },
        {
          "internalType": "uint256",
          "name": "",
          "type": "uint256"
        }
      ],
      "stateMutability": "view",
      "type": "function"
    },
    {
      "inputs": [
        {
          "internalType": "bytes4",
          "name": "interfaceId",
          "type": "bytes4"
        }
      ],
      "name": "supportsInterface",
      "outputs": [
        {
          "internalType": "bool",
          "name": "",
          "type": "bool"
        }
      ],
      "stateMutability": "pure",
      "type": "function"
    },
    {
      "inputs": [
        {
          "internalType": "uint256",
          "name": "tokenId",
          "type": "uint256"
        }
      ],
      "name": "tip",
      "outputs": [],
      "stateMutability": "payable",
      "type": "function"
    }
  ],
  "transactionHash": "0x6dbf5d02642f877b6be226d90744d5afb7e9633e41c42dfb04451cfd8f0ee28a",
  "args": [
    "0xf39Fd6e51aad88F6F4ce6aB8827279cffFb92266",
    20
  ],
  "numDeployments": 1,
  "solcInputHash": "8222a7a9cba584bac7698477fbe7460e",
  "bytecode": "0x60806040523461021a57604051601f61145238819003918201601f19168301916001600160401b0383118484101761021e57808492604094855283398101031261021a5780516001600160a01b038116919082900361021a57602001519063ffffffff8216820361021a575f6060610075610232565b8281528260208201528260408201520152731364cbbf2cdf5032c47d8226a6f6fbd2afcdacac60606100a5610232565b7350157cffd6bbfa2dece204a89ec419c23ef5755d815273cd3ab3bd6bcc0c0bf3e27912a92043e817b1cf69602082015273a02cda4ca3a71d7c46997716f4283aa851c28812604082015201527350157cffd6bbfa2dece204a89ec419c23ef5755d60018060a01b03195f5160206114325f395f51905f525416175f5160206114325f395f51905f525573cd3ab3bd6bcc0c0bf3e27912a92043e817b1cf6960018060a01b03195f5160206113f25f395f51905f525416175f5160206113f25f395f51905f525573a02cda4ca3a71d7c46997716f4283aa851c2881260018060a01b03195f5160206114125f395f51905f525416175f5160206114125f395f51905f5255731364cbbf2cdf5032c47d8226a6f6fbd2afcdacac60018060a01b03195f5160206113d25f395f51905f525416175f5160206113d25f395f51905f525560016005556004549163ffffffff60a01b9060a01b169160018060c01b031916171760045560405161118090816102528239f35b5f80fd5b634e487b7160e01b5f52604160045260245ffd5b60405190608082016001600160401b0381118382101761021e5760405256fe6080806040526004361015610012575f80fd5b5f3560e01c90816301ffc9a714610d725750806308a0f32f14610a995780632a55205a14610a665780635ba241951461092c5780636352211e146108fa57806370a08231146108bf57806375794a3c146108a2578063ced141981461084d578063d12e85ca146107b4578063da1f12ab14610798578063e304d0f914610772578063e8b69bc3146106a2578063e954044c14610575578063eb13554f1461054f5763fbf2f573146100c1575f80fd5b3461054b5761010036600319011261054b5760043567ffffffffffffffff811161054b576100f3903690600401610dc5565b60443567ffffffffffffffff811161054b57610113903690600401610dc5565b9160843567ffffffffffffffff811161054b57610134903690600401610dc5565b909460a4359363ffffffff851680950361054b5760c4359567ffffffffffffffff871680970361054b5760e4359763ffffffff891680990361054b5760018710158061053f575b156104fa5761019d6101956101ad946101a5943691610ebe565b602435610f04565b943691610ebe565b60643561102f565b95600554955f19871461040b576001870160055560405190610120820182811067ffffffffffffffff8211176104e6576040526101eb368786610ebe565b8252602082019185835260408101918a8352606082019081526080820194855260a0820133815260c08301955f875260e08401948b86526101008501965f88528d5f52600260205260405f20955180519067ffffffffffffffff82116104e6576102558854610e37565b601f81116104a1575b50602090601f831160011461042a57928261033c9c9b99969363ffffffff9b999693600499965f9261041f575b50508160011b915f199060031b1c19161786555b51600186015551600285015591519151905160409190911b6bffffffff00000000000000001667ffffffffffffffff929092169190911760609190911b6bffffffffffffffffffffffff19161760038201559451940180549151925168ffffffffffffffffff1990921660ff951515959095169490941760089290921b64ffffffff001691909117911660281b68ffffffff000000000016179055565b845f525f60205260405f206001600160a01b03331673ffffffffffffffffffffffffffffffffffffffff19825416179055335f52600160205260405f209384546001810180911161040b576020976103c77f6539bbdc2dcb845d7a9a5b5b86c4e74d9e42431a4cc4265a655fa533580482cc956103d1938a99556103c0308261110c565b339061110c565b6103c0308261110c565b83604051926040845281604085015260608401375f60608584010152868201526060813394601f80199101168101030190a3604051908152f35b634e487b7160e01b5f52601160045260245ffd5b015190505f8061028b565b90601f19831691895f52815f20925f5b81811061048957509363ffffffff9b999693600499969361033c9f9e9c9996938360019510610471575b505050811b01865561029f565b01515f1960f88460031b161c191690555f8080610464565b9293602060018192878601518155019501930161043a565b885f5260205f20601f840160051c810191602085106104dc575b601f0160051c01905b8181106104d1575061025e565b5f81556001016104c4565b90915081906104bb565b634e487b7160e01b5f52604160045260245ffd5b60405162461bcd60e51b815260206004820152600e60248201527f496e76616c696420737570706c790000000000000000000000000000000000006044820152606490fd5b5061271087111561017b565b5f80fd5b3461054b575f36600319011261054b5760206001600160a01b0360045416604051908152f35b3461054b57602036600319011261054b57600435805f52600260205260405f20905f525f6020526001600160a01b0360405f20541690600381015460601c91600482015492604051925f908054906105cc82610e37565b808752916001811690811561067b575060011461063e575b50509363ffffffff916105fc85610610970386610e9c565b60405195869560c0875260c0870190610df3565b936020860152604085015260ff811615156060850152818160081c16608085015260281c1660a08301520390f35b5f908152602081209092505b8183106106615750508301602001816105fc6105e4565b6001816020929493945483858a010152019101919061064a565b60ff191660208089019190915292151560051b870190920192508391506105fc90506105e4565b602036600319011261054b57600435805f52600260205260405f206106c78154610e37565b1561072d575f808060038194015460601c81903415610723575b3491f11561071857604051903482527f6e1a6bd82865379d089c6325b31b76ba4088344a71959e3c6db85054dc43964d60203393a3005b6040513d5f823e3d90fd5b6108fc91506106e1565b60405162461bcd60e51b815260206004820152600a60248201527f4e6f7420657869737473000000000000000000000000000000000000000000006044820152606490fd5b3461054b575f36600319011261054b57602063ffffffff60045460a01c16604051908152f35b3461054b575f36600319011261054b5760206040516127118152f35b606036600319011261054b5760043560443567ffffffffffffffff811161054b576103c76107f36107ec6107fb933690600401610dc5565b3691610ebe565b60243561102f565b805f52600360205260405f206001600160a01b0333165f5260205260405f20600160ff1982541617905533907f9d3165becc99baec301813b1612049d03855703556b2fc11d56004c5cf09f5f35f80a3005b3461054b57604036600319011261054b576024356001600160a01b038116810361054b576004355f5260036020526001600160a01b0360405f2091165f52602052602060ff60405f2054166040519015158152f35b3461054b575f36600319011261054b576020600554604051908152f35b3461054b57602036600319011261054b576004356001600160a01b03811680910361054b575f526001602052602060405f2054604051908152f35b3461054b57602036600319011261054b576004355f525f60205260206001600160a01b0360405f205416604051908152f35b3461054b57608036600319011261054b5760043560443567ffffffffffffffff811161054b57610960903690600401610dc5565b9060643567ffffffffffffffff811680910361054b57835f525f6020526001600160a01b0360405f2054163303610a2157610a186109c66101956020947fedf8316697b7c0239fbb667743f1c7e8983755a49f92d6eef310509bbcb85251963691610ebe565b855f526002845280600160405f200155855f5260028452600360405f20018367ffffffffffffffff19825416179055855f5260028452600460405f2001600160ff198254161790556103c0308261110c565b604051908152a2005b60405162461bcd60e51b815260206004820152600960248201527f4e6f74206f776e657200000000000000000000000000000000000000000000006044820152606490fd5b3461054b57604036600319011261054b576040610a84600435610e6f565b6001600160a01b038351921682526020820152f35b602036600319011261054b57600435805f52600260205260405f20600481019060ff82541615610d2d57825f525f6020526001600160a01b0360405f2054169081151580610d23575b15610cde5760030180549067ffffffffffffffff821690813403610c99576103e8610b2b6004549363ffffffff83610b1f828860a01c1684610e17565b049660401c1690610e17565b0491610b4083610b3b8634610e2a565b610e2a565b9380158015610c68575b5050508115908115610c3e575b5050505f8080809385828215610c35575bf115610718575f83815260208181526040808320805473ffffffffffffffffffffffffffffffffffffffff191633179055928252600190522080545f1981019190821161040b5755335f52600160205260405f208054906001820180921161040b5755600163ffffffff825460281c160163ffffffff811161040b57815468ffffffff0000000000191660289190911b68ffffffff000000000016179055604051903482527ff091f88ca2ef0c68b3393f53379129a6f554dcf0bf876db97f163b761edfa7fc60203393a3005b506108fc610b68565b5f8093819382935460601c908390610c5f575bf11561071857848080610b57565b506108fc610c51565b5f928392839283928391610c8f575b6001600160a01b031690f11561071857868080610b4a565b6108fc9150610c77565b60405162461bcd60e51b815260206004820152600b60248201527f57726f6e672070726963650000000000000000000000000000000000000000006044820152606490fd5b60405162461bcd60e51b815260206004820152601460248201527f496e76616c69642073656c6c65722f62757965720000000000000000000000006044820152606490fd5b5033821415610ae2565b60405162461bcd60e51b815260206004820152600a60248201527f4e6f74206c6973746564000000000000000000000000000000000000000000006044820152606490fd5b3461054b57602036600319011261054b576004359063ffffffff60e01b821680920361054b576020916301ffc9a760e01b8114908115610db4575b5015158152f35b63152a902d60e11b14905083610dad565b9181601f8401121561054b5782359167ffffffffffffffff831161054b576020838186019501011161054b57565b805180835260209291819084018484015e5f828201840152601f01601f1916010190565b8181029291811591840414171561040b57565b9190820391821161040b57565b90600182811c92168015610e65575b6020831014610e5157565b634e487b7160e01b5f52602260045260245ffd5b91607f1691610e46565b5f52600260205260405f20610e848154610e37565b15610e95576003015460601c905f90565b505f905f90565b90601f8019910116810190811067ffffffffffffffff8211176104e657604052565b92919267ffffffffffffffff82116104e65760405191610ee8601f8201601f191660200184610e9c565b82948184528183011161054b578281602093845f960137010152565b610f5e92916020917f9e7b61f58c47dc699ac88507c4f5bb9f121c03808c5676a8078fe583e464970154905f604051968794859363196d0b9b60e01b85526004850152336024850152608060448501526084840190610df3565b600560648401526001600160a01b03835a9203941690f1918215610718575f92610ffb575b50816001600160a01b037f9e7b61f58c47dc699ac88507c4f5bb9f121c03808c5676a8078fe583e46497005416803b1561054b57604051630f8e573b60e21b815260048101929092523360248301525f908290818381604481015b03925af1801561071857610fef5750565b5f610ff991610e9c565b565b9091506020813d602011611027575b8161101760209383610e9c565b8101031261054b5751905f610f83565b3d915061100a565b61108992916020917f9e7b61f58c47dc699ac88507c4f5bb9f121c03808c5676a8078fe583e464970154905f604051968794859363196d0b9b60e01b85526004850152336024850152608060448501526084840190610df3565b600460648401526001600160a01b03835a9203941690f1918215610718575f92610ffb5750816001600160a01b037f9e7b61f58c47dc699ac88507c4f5bb9f121c03808c5676a8078fe583e46497005416803b1561054b57604051630f8e573b60e21b815260048101929092523360248301525f90829081838160448101610fde565b6001600160a01b037f9e7b61f58c47dc699ac88507c4f5bb9f121c03808c5676a8078fe583e4649700541691823b1561054b57604051635ca4b5b160e11b815260048101929092526001600160a01b03166024820152905f90829081838160448101610fde56fea164736f6c634300081b000a9e7b61f58c47dc699ac88507c4f5bb9f121c03808c5676a8078fe583e46497039e7b61f58c47dc699ac88507c4f5bb9f121c03808c5676a8078fe583e46497019e7b61f58c47dc699ac88507c4f5bb9f121c03808c5676a8078fe583e46497029e7b61f58c47dc699ac88507c4f5bb9f121c03808c5676a8078fe583e4649700",
  "devdoc": {
    "kind": "dev",
    "methods": {
      "royaltyInfo(uint256,uint256)": {
        "details": "Simple EIP-2981 fixed royalty based on stored royaltyPermille; returns plain values for marketplaces"
      },
      "supportsInterface(bytes4)": {
        "details": "Returns true if this contract implements the interface defined by `interfaceId`. See the corresponding https://eips.ethereum.org/EIPS/eip-165#how-interfaces-are-identified[ERC section] to learn more about how these ids are created. This function call must use less than 30 000 gas."
      }
    },
    "stateVariables": {
      "_accessPlain": {
        "details": "paid access: tokenId => buyer => plaintext access flag for gating (MVP)"
      },
      "_ownerOf": {
        "details": "Minimal ERC-721-like storage for ownership and index"
      }
    },
    "title": "MiniComicRegistry - FHE-enabled NFT micro comic registry",
    "version": 1
  },
  "userdoc": {
    "kind": "user",
    "methods": {},
    "notice": "Stores minimal on-chain index while using FHE for price/royalty arithmetic and access flags.",
    "version": 1
  },
  "storageLayout": {
    "storage": [
      {
        "astId": 39203,
        "contract": "contracts/MiniComicRegistry.sol:MiniComicRegistry",
        "label": "_ownerOf",
        "offset": 0,
        "slot": "0",
        "type": "t_mapping(t_uint256,t_address)"
      },
      {
        "astId": 39207,
        "contract": "contracts/MiniComicRegistry.sol:MiniComicRegistry",
        "label": "_balanceOf",
        "offset": 0,
        "slot": "1",
        "type": "t_mapping(t_address,t_uint256)"
      },
      {
        "astId": 39233,
        "contract": "contracts/MiniComicRegistry.sol:MiniComicRegistry",
        "label": "_comics",
        "offset": 0,
        "slot": "2",
        "type": "t_mapping(t_uint256,t_struct(ComicInfo)39228_storage)"
      },
      {
        "astId": 39240,
        "contract": "contracts/MiniComicRegistry.sol:MiniComicRegistry",
        "label": "_accessPlain",
        "offset": 0,
        "slot": "3",
        "type": "t_mapping(t_uint256,t_mapping(t_address,t_bool))"
      },
      {
        "astId": 39242,
        "contract": "contracts/MiniComicRegistry.sol:MiniComicRegistry",
        "label": "platformFeeRecipient",
        "offset": 0,
        "slot": "4",
        "type": "t_address"
      },
      {
        "astId": 39244,
        "contract": "contracts/MiniComicRegistry.sol:MiniComicRegistry",
        "label": "platformFeePermille",
        "offset": 20,
        "slot": "4",
        "type": "t_uint32"
      },
      {
        "astId": 39247,
        "contract": "contracts/MiniComicRegistry.sol:MiniComicRegistry",
        "label": "nextTokenId",
        "offset": 0,
        "slot": "5",
        "type": "t_uint256"
      }
    ],
    "types": {
      "t_address": {
        "encoding": "inplace",
        "label": "address",
        "numberOfBytes": "20"
      },
      "t_bool": {
        "encoding": "inplace",
        "label": "bool",
        "numberOfBytes": "1"
      },
      "t_mapping(t_address,t_bool)": {
        "encoding": "mapping",
        "key": "t_address",
        "label": "mapping(address => bool)",
        "numberOfBytes": "32",
        "value": "t_bool"
      },
      "t_mapping(t_address,t_uint256)": {
        "encoding": "mapping",
        "key": "t_address",
        "label": "mapping(address => uint256)",
        "numberOfBytes": "32",
        "value": "t_uint256"
      },
      "t_mapping(t_uint256,t_address)": {
        "encoding": "mapping",
        "key": "t_uint256",
        "label": "mapping(uint256 => address)",
        "numberOfBytes": "32",
        "value": "t_address"
      },
      "t_mapping(t_uint256,t_mapping(t_address,t_bool))": {
        "encoding": "mapping",
        "key": "t_uint256",
        "label": "mapping(uint256 => mapping(address => bool))",
        "numberOfBytes": "32",
        "value": "t_mapping(t_address,t_bool)"
      },
      "t_mapping(t_uint256,t_struct(ComicInfo)39228_storage)": {
        "encoding": "mapping",
        "key": "t_uint256",
        "label": "mapping(uint256 => struct MiniComicRegistry.ComicInfo)",
        "numberOfBytes": "32",
        "value": "t_struct(ComicInfo)39228_storage"
      },
      "t_string_storage": {
        "encoding": "bytes",
        "label": "string",
        "numberOfBytes": "32"
      },
      "t_struct(ComicInfo)39228_storage": {
        "encoding": "inplace",
        "label": "struct MiniComicRegistry.ComicInfo",
        "members": [
          {
            "astId": 39209,
            "contract": "contracts/MiniComicRegistry.sol:MiniComicRegistry",
            "label": "metadataURI",
            "offset": 0,
            "slot": "0",
            "type": "t_string_storage"
          },
          {
            "astId": 39212,
            "contract": "contracts/MiniComicRegistry.sol:MiniComicRegistry",
            "label": "priceWei",
            "offset": 0,
            "slot": "1",
            "type": "t_userDefinedValueType(euint64)39908"
          },
          {
            "astId": 39215,
            "contract": "contracts/MiniComicRegistry.sol:MiniComicRegistry",
            "label": "royaltyPermille",
            "offset": 0,
            "slot": "2",
            "type": "t_userDefinedValueType(euint32)39900"
          },
          {
            "astId": 39217,
            "contract": "contracts/MiniComicRegistry.sol:MiniComicRegistry",
            "label": "priceWeiPlain",
            "offset": 0,
            "slot": "3",
            "type": "t_uint64"
          },
          {
            "astId": 39219,
            "contract": "contracts/MiniComicRegistry.sol:MiniComicRegistry",
            "label": "royaltyPermillePlain",
            "offset": 8,
            "slot": "3",
            "type": "t_uint32"
          },
          {
            "astId": 39221,
            "contract": "contracts/MiniComicRegistry.sol:MiniComicRegistry",
            "label": "author",
            "offset": 12,
            "slot": "3",
            "type": "t_address"
          },
          {
            "astId": 39223,
            "contract": "contracts/MiniComicRegistry.sol:MiniComicRegistry",
            "label": "listed",
            "offset": 0,
            "slot": "4",
            "type": "t_bool"
          },
          {
            "astId": 39225,
            "contract": "contracts/MiniComicRegistry.sol:MiniComicRegistry",
            "label": "supply",
            "offset": 1,
            "slot": "4",
            "type": "t_uint32"
          },
          {
            "astId": 39227,
            "contract": "contracts/MiniComicRegistry.sol:MiniComicRegistry",
            "label": "soldCount",
            "offset": 5,
            "slot": "4",
            "type": "t_uint32"
          }
        ],
        "numberOfBytes": "160"
      },
      "t_uint256": {
        "encoding": "inplace",
        "label": "uint256",
        "numberOfBytes": "32"
      },
      "t_uint32": {
        "encoding": "inplace",
        "label": "uint32",
        "numberOfBytes": "4"
      },
      "t_uint64": {
        "encoding": "inplace",
        "label": "uint64",
        "numberOfBytes": "8"
      },
      "t_userDefinedValueType(euint32)39900": {
        "encoding": "inplace",
        "label": "euint32",
        "numberOfBytes": "32"
      },
      "t_userDefinedValueType(euint64)39908": {
        "encoding": "inplace",
        "label": "euint64",
        "numberOfBytes": "32"
      }
    }
  }
}